{
  "_format": "hh-sol-artifact-1",
  "contractName": "Token",
  "sourceName": "contracts/Token.sol",
  "abi": [
    {
      "inputs": [],
      "stateMutability": "nonpayable",
      "type": "constructor"
    },
    {
      "inputs": [
        {
          "internalType": "address",
          "name": "person",
          "type": "address"
        }
      ],
      "name": "balanceof",
      "outputs": [
        {
          "internalType": "uint256",
          "name": "",
          "type": "uint256"
        }
      ],
      "stateMutability": "view",
      "type": "function"
    },
    {
      "inputs": [],
      "name": "total_supply",
      "outputs": [
        {
          "internalType": "uint256",
          "name": "",
          "type": "uint256"
        }
      ],
      "stateMutability": "view",
      "type": "function"
    },
    {
      "inputs": [
        {
          "internalType": "address",
          "name": "reciver",
          "type": "address"
        },
        {
          "internalType": "uint256",
          "name": "money",
          "type": "uint256"
        }
      ],
      "name": "transfer",
      "outputs": [],
      "stateMutability": "nonpayable",
      "type": "function"
    }
  ],
  "bytecode": "0x60806040526040518060400160405280600b81526020017f4e6974696e5f546f6b656e000000000000000000000000000000000000000000815250600090816200004a9190620003e3565b506040518060400160405280600281526020017f4e5400000000000000000000000000000000000000000000000000000000000081525060019081620000919190620003e3565b50612710600355348015620000a557600080fd5b5033600260006101000a81548173ffffffffffffffffffffffffffffffffffffffff021916908373ffffffffffffffffffffffffffffffffffffffff16021790555060035460046000600260009054906101000a900473ffffffffffffffffffffffffffffffffffffffff1673ffffffffffffffffffffffffffffffffffffffff1673ffffffffffffffffffffffffffffffffffffffff16815260200190815260200160002060008282546200015c9190620004f9565b9250508190555062000534565b600081519050919050565b7f4e487b7100000000000000000000000000000000000000000000000000000000600052604160045260246000fd5b7f4e487b7100000000000000000000000000000000000000000000000000000000600052602260045260246000fd5b60006002820490506001821680620001eb57607f821691505b602082108103620002015762000200620001a3565b5b50919050565b60008190508160005260206000209050919050565b60006020601f8301049050919050565b600082821b905092915050565b6000600883026200026b7fffffffffffffffffffffffffffffffffffffffffffffffffffffffffffffffff826200022c565b6200027786836200022c565b95508019841693508086168417925050509392505050565b6000819050919050565b6000819050919050565b6000620002c4620002be620002b8846200028f565b62000299565b6200028f565b9050919050565b6000819050919050565b620002e083620002a3565b620002f8620002ef82620002cb565b84845462000239565b825550505050565b600090565b6200030f62000300565b6200031c818484620002d5565b505050565b5b8181101562000344576200033860008262000305565b60018101905062000322565b5050565b601f82111562000393576200035d8162000207565b62000368846200021c565b8101602085101562000378578190505b6200039062000387856200021c565b83018262000321565b50505b505050565b600082821c905092915050565b6000620003b86000198460080262000398565b1980831691505092915050565b6000620003d38383620003a5565b9150826002028217905092915050565b620003ee8262000169565b67ffffffffffffffff8111156200040a576200040962000174565b5b620004168254620001d2565b6200042382828562000348565b600060209050601f8311600181146200045b576000841562000446578287015190505b620004528582620003c5565b865550620004c2565b601f1984166200046b8662000207565b60005b8281101562000495578489015182556001820191506020850194506020810190506200046e565b86831015620004b55784890151620004b1601f891682620003a5565b8355505b6001600288020188555050505b505050505050565b7f4e487b7100000000000000000000000000000000000000000000000000000000600052601160045260246000fd5b600062000506826200028f565b915062000513836200028f565b92508282019050808211156200052e576200052d620004ca565b5b92915050565b61065d80620005446000396000f3fe608060405234801561001057600080fd5b50600436106100415760003560e01c80633940e9ee146100465780633d64125b14610064578063a9059cbb14610094575b600080fd5b61004e6100b0565b60405161005b919061034d565b60405180910390f35b61007e600480360381019061007991906103cb565b6100b6565b60405161008b919061034d565b60405180910390f35b6100ae60048036038101906100a99190610424565b6100ff565b005b60035481565b6000600460008373ffffffffffffffffffffffffffffffffffffffff1673ffffffffffffffffffffffffffffffffffffffff168152602001908152602001600020549050919050565b61013e6040518060400160405280600581526020017f6d6f6e65790000000000000000000000000000000000000000000000000000008152508261026f565b80600460003373ffffffffffffffffffffffffffffffffffffffff1673ffffffffffffffffffffffffffffffffffffffff16815260200190815260200160002054116101bf576040517f08c379a00000000000000000000000000000000000000000000000000000000081526004016101b6906104c1565b60405180910390fd5b80600460003373ffffffffffffffffffffffffffffffffffffffff1673ffffffffffffffffffffffffffffffffffffffff168152602001908152602001600020600082825461020e9190610510565b9250508190555080600460008473ffffffffffffffffffffffffffffffffffffffff1673ffffffffffffffffffffffffffffffffffffffff16815260200190815260200160002060008282546102649190610544565b925050819055505050565b61030782826040516024016102859291906105f7565b6040516020818303038152906040527fb60e72cc000000000000000000000000000000000000000000000000000000007bffffffffffffffffffffffffffffffffffffffffffffffffffffffff19166020820180517bffffffffffffffffffffffffffffffffffffffffffffffffffffffff838183161783525050505061030b565b5050565b60008151905060006a636f6e736f6c652e6c6f679050602083016000808483855afa5050505050565b6000819050919050565b61034781610334565b82525050565b6000602082019050610362600083018461033e565b92915050565b600080fd5b600073ffffffffffffffffffffffffffffffffffffffff82169050919050565b60006103988261036d565b9050919050565b6103a88161038d565b81146103b357600080fd5b50565b6000813590506103c58161039f565b92915050565b6000602082840312156103e1576103e0610368565b5b60006103ef848285016103b6565b91505092915050565b61040181610334565b811461040c57600080fd5b50565b60008135905061041e816103f8565b92915050565b6000806040838503121561043b5761043a610368565b5b6000610449858286016103b6565b925050602061045a8582860161040f565b9150509250929050565b600082825260208201905092915050565b7f596f7520646f6e7420686176652020656e6f756768206d6f6e65790000000000600082015250565b60006104ab601b83610464565b91506104b682610475565b602082019050919050565b600060208201905081810360008301526104da8161049e565b9050919050565b7f4e487b7100000000000000000000000000000000000000000000000000000000600052601160045260246000fd5b600061051b82610334565b915061052683610334565b925082820390508181111561053e5761053d6104e1565b5b92915050565b600061054f82610334565b915061055a83610334565b9250828201905080821115610572576105716104e1565b5b92915050565b600081519050919050565b60005b838110156105a1578082015181840152602081019050610586565b60008484015250505050565b6000601f19601f8301169050919050565b60006105c982610578565b6105d38185610464565b93506105e3818560208601610583565b6105ec816105ad565b840191505092915050565b6000604082019050818103600083015261061181856105be565b9050610620602083018461033e565b939250505056fea264697066735822122043a9b688746ffae84b029f0bafd93e22c5899a8c114f604296bee1a5a505d50064736f6c63430008110033",
  "linkReferences": {},
  "deployedLinkReferences": {}
}